:100000000C9434000C943E000C943E000C943E0082
:100010000C943E000C943E000C943E000C943E0068
:100020000C943E000C943E000C943E000C943E0058
:100030000C943E000C943E000C943E000C943E0048
:100040000C943E000C943E000C943E000C943E0038
:100050000C943E000C943E000C943E000C943E0028
:100060000C943E000C943E0011241FBECFEFD8E04C
:10007000DEBFCDBF0E9440000C9490000C940000A5
:1000800080EC8AB988E38BB920E931E04B9914C040
:100090004C9B12C04D9B10C05E9A88EE93E0F90114
:1000A0003197F1F70197D9F75E9888EE93E0F9015F
:1000B0003197F1F70197D9F74C9914C04B9B12C0B7
:1000C0004D9B10C05F9A88EE93E0F9013197F1F7EC
:1000D0000197D9F75F9888EE93E0F9013197F1F72E
:1000E0000197D9F74D9919C04B9B17C04C9B15C070
:1000F0008BB1806C8BB988EE93E0F9013197F1F701
:100100000197D9F78BB18F738BB988EE93E0F90122
:100110003197F1F70197D9F7B9CF5E985F98B6CFCD
:04012000F894FFCF81
:00000001FF
