:100000000C9434000C943E000C943E000C943E0082
:100010000C943E000C943E000C943E000C943E0068
:100020000C943E000C943E000C943E000C943E0058
:100030000C943E000C943E000C943E000C943E0048
:100040000C943E000C943E000C943E000C943E0038
:100050000C943E000C943E000C943E000C943E0028
:100060000C943E000C943E0011241FBECFEFD8E04C
:10007000DEBFCDBF0E9440000C9477000C940000BE
:1000800080E48AB988E18BB940ED57E020E536E499
:10009000E0E4FFE160EE7EE24B990AC04C9B08C0B1
:1000A0005E9ACA010197F1F75E98C9010197F1F7CD
:1000B0004C990AC04B9B08C05E9ACF010197F1F79B
:1000C0005E98CB010197F1F74B990FC04C990DC089
:1000D0008BB1806C8BB9C9010197F1F78BB18F732C
:1000E0008BB9CA010197F1F7D7CF5E98D5CFF894B5
:0200F000FFCF40
:00000001FF
