:100000000C9434000C9449000C9449000C94490061
:100010000C9449000C9449000C9449000C9449003C
:100020000C9449000C9449000C9449000C9449002C
:100030000C9449000C9449000C9449000C9449001C
:100040000C9449000C9449000C9449000C9449000C
:100050000C9449000C9449000C9449000C944900FC
:100060000C9449000C94490011241FBECFEFD8E036
:10007000DEBFCDBF12E0A0E0B1E0E6E1FCE002C0EF
:1000800005900D92A231B107D9F70E944B000C9454
:1000900009060C9400002F923F924F925F926F924C
:1000A0007F928F929F92AF92BF92CF92DF92EF9208
:1000B000FF920F931F93DF93CF93CDB7DEB72C97AB
:1000C0000FB6F894DEBF0FBECDBFDE011396E0E0A1
:1000D000F1E08AE001900D928150E1F785E3898398
:1000E00083E38A838FEF8AB98EEF84B985B93E01A5
:1000F0000894611C711C53E0A52EB12CAC0EBD1EE2
:1001000040E2C42E4EE4D42E3FEE232E2DEF322EAD
:100110009BEF492E87EF582E17B880EC80937C0018
:1001200087E880937A0080917A00806480937A00D7
:1001300080917A0084FFFCCF609178002091790053
:10014000F22EEE2470E06E297F29882777FD8095B6
:10015000982F0E945D03189B03C0E0E0F0E00EC002
:1001600020E030E040EA53E40E94530226E636E6FF
:1001700046EE5FE30E94B102E1E0F0E0E60DF71D1C
:1001800080800E94BB038B019C01CB0164E670E080
:100190000E94AB05CB016AE070E00E94AB05F5015F
:1001A000E80FF11D9080C8016AE070E00E94AB0585
:1001B000CB016AE070E00E94AB05F501E80FF11D8C
:1001C0004081C8016AE070E00E94AB05F501E80FCC
:1001D000F11DE08120E030E08BB825B8C601019721
:1001E000F1F79BB835B8C6010197F1F74BB95F9AA3
:1001F00045B8C6010197F1F7EBB955B8C6010197AB
:10020000F1F72F5F3F4F2931310531F785CFA0E05E
:10021000B0E0EDE0F1E00C94D205DC012B01FA0135
:100220009C91923008F439C1EB018881823008F446
:1002300033C1943069F4843009F02FC111969C9138
:1002400011978981981709F428C1AAE0B1E025C166
:10025000843009F421C18230A9F4923009F01DC123
:100260009A01AD0188E0EA010990AE01E901099225
:100270009E018150C1F7E201898111969C918923E9
:10028000818308C1923009F407C112962D903C90E9
:100290001397EB018A819B811496AD90BD90CD9010
:1002A000DC901797EC80FD800E811F819101281B47
:1002B000390BB90137FF04C066277727621B730B20
:1002C000603271050CF061C0121613066CF537012F
:1002D0004801062E04C096948794779467940A94F4
:1002E000D2F721E030E040E050E004C0220F331F9D
:1002F000441F551F6A95D2F721503040404050406E
:100300002E213F214023512321153105410551055F
:1003100021F021E030E040E050E079018A01E62858
:10032000F728082919293CC0232BD1F1260E371EA6
:1003300035014601062E04C09694879477946794FD
:100340000A94D2F721E030E040E050E004C0220FF0
:10035000331F441F551F6A95D2F72150304040404B
:1003600050402A213B214C215D21211531054105B9
:10037000510521F021E030E040E050E059016A01F0
:10038000A628B728C828D9280BC0821593052CF0B9
:100390001C01AA24BB24650103C0EE24FF248701AD
:1003A00011969C91D20111968C91981709F445C031
:1003B000992339F0A80197012A193B094C095D09D5
:1003C00006C0A60195012E193F09400B510B57FDA0
:1003D00008C0118233822282248335834683578367
:1003E0001DC081E081833382228288279927DC0126
:1003F000821B930BA40BB50B84839583A683B783D1
:100400000DC0220F331F441F551F2483358346839D
:1004100057838281938101979383828324813581DD
:1004200046815781DA01C9010197A109B1098F5F9E
:100430009F4FAF4FBF4328F30BC09183338222827B
:10044000EA0CFB1C0C1D1D1DE482F582068317833C
:1004500083E08083248135814681578157FF1AC00C
:10046000C901AA2797FDA095BA2F81709070A0703E
:10047000B0705695479537952795822B932BA42BD3
:10048000B52B84839583A683B7838281938101965C
:1004900093838283DF0101C0D201CD01CDB7DEB7E6
:1004A000E2E10C94EE05A0E2B0E0E9E5F2E00C94A4
:1004B000DE0569837A838B839C832D833E834F8300
:1004C0005887E9E0EE2EF12CEC0EFD1ECE010196D0
:1004D000B7010E9433058E010F5E1F4FCE010596B6
:1004E000B8010E9433058A8991E089278A8BC70168
:1004F000B801AE01475E5F4F0E9407010E945E0493
:10050000A096E6E00C94FA05A0E2B0E0EAE8F2E09A
:100510000C94DE0569837A838B839C832D833E83D1
:100520004F835887F9E0EF2EF12CEC0EFD1ECE0123
:100530000196B7010E9433058E010F5E1F4FCE0159
:100540000596B8010E943305C701B801AE01475EA8
:100550005F4F0E9407010E945E04A096E6E00C94A3
:10056000FA05A8E1B0E0E7EBF2E00C94DA05698364
:100570007A838B839C832D833E834F835887B9E096
:10058000EB2EF12CEC0EFD1ECE010196B7010E9460
:1005900033058E010F5E1F4FCE010596B8010E94F4
:1005A00033052985223008F47EC03989323010F4B1
:1005B000B8017CC08A859A8989278A87243011F0FE
:1005C000223031F4231709F06EC06AE071E06EC08A
:1005D000343039F41D861E861F86188A1C861B86B9
:1005E00004C0323021F484E08987B7015FC02B85D5
:1005F0003C858B899C89281B390B3C872B87ED8494
:10060000FE840F851889AD88BE88CF88D88CEA14FF
:10061000FB040C051D0540F4EE0CFF1C001F111F10
:10062000215030403C872B8720E030E040E050E014
:1006300080E090E0A0E0B0E460E070E0EA14FB0449
:100640000C051D0540F0282B392B4A2B5B2BEA1893
:10065000FB080C091D09B695A79597958795EE0C93
:10066000FF1C001F111F6F5F7F4F6F31710531F746
:10067000DA01C9018F779070A070B0708034910555
:10068000A105B10561F427FD0AC0E114F1040105DB
:10069000110529F0205C3F4F4F4F5F4F20782D8789
:1006A0003E874F87588BBE01675F7F4FCB010E940B
:1006B0005E046896EAE00C94F605A8E0B0E0E3E694
:1006C000F3E00C94DB059B01AC0183E08983DA0144
:1006D000C9018827B7FD83959927AA27BB27B82E7C
:1006E000211531054105510519F482E089833AC08D
:1006F0008823A9F0203080E0380780E0480780E8B0
:10070000580729F460E070E080E09FEC30C0EE24F0
:10071000FF248701E21AF30A040B150B02C07901CA
:100720008A018EE1C82ED12CDC82CB82ED82FE8242
:100730000F831887C801B7010E940F04019718168C
:10074000190684F4082E04C0EE0CFF1C001F111FB4
:100750000A94D2F7ED82FE820F831887C81AD90A4D
:10076000DC82CB82BA82CE0101960E945E0428967A
:10077000E9E00C94F705ACE0B0E0E1ECF3E00C94B8
:10078000E20569837A838B839C83CE010196BE0147
:100790006B5F7F4F0E9433058D81823061F1823023
:1007A00050F1843021F48E81882351F12EC02F81A5
:1007B000388537FD20C06E812F3131051CF066234E
:1007C000F9F023C08EE190E0821B930B29853A85D6
:1007D0004B855C8504C056954795379527958A9536
:1007E000D2F76623B1F050954095309521953F4F53
:1007F0004F4F5F4F0EC020E030E040E050E009C0B6
:100800002FEF3FEF4FEF5FE704C020E030E040E024
:1008100050E8B901CA012C96E2E00C94FE05EF9273
:10082000FF920F931F937B018C0180E0E81680E01C
:10083000F80681E0080780E0180788F48FEFE816D3
:10084000F1040105110531F028F088E090E0A0E006
:10085000B0E017C080E090E0A0E0B0E012C080E01F
:10086000E81680E0F80680E0080781E0180728F025
:1008700088E190E0A0E0B0E004C080E190E0A0E07A
:10088000B0E020E230E040E050E0281B390B4A0B9A
:100890005B0B04C016950795F794E7948A95D2F7F9
:1008A000F701EE5EFE4F8081281B31094109510995
:1008B000C9011F910F91FF90EF900895DF92EF9281
:1008C000FF920F931F93FC01E480F580068117814E
:1008D000D1808081823048F480E090E0A0E1B0E0F7
:1008E000E82AF92A0A2B1B2BA5C0843009F49FC0E3
:1008F000823021F4EE24FF24870105C0E114F104C5
:100900000105110519F4E0E0F0E096C06281738101
:100910009FEF623879070CF05BC022E83FEF261B9F
:10092000370B2A3131052CF020E030E040E050E078
:100930002AC0B801A701022E04C076956795579585
:1009400047950A94D2F781E090E0A0E0B0E004C0BF
:10095000880F991FAA1FBB1F2A95D2F70197A109DB
:10096000B1098E219F21A023B1230097A105B105D4
:1009700021F081E090E0A0E0B0E09A01AB01282BEB
:10098000392B4A2B5B2BDA01C9018F779070A0704D
:10099000B07080349105A105B10539F427FF09C075
:1009A000205C3F4F4F4F5F4F04C0215C3F4F4F4F84
:1009B0005F4FE0E0F0E02030A0E03A07A0E04A0717
:1009C000A0E45A0710F0E1E0F0E079018A0127C0C5
:1009D0006038710564F5FB01E158FF4FD801C7018C
:1009E0008F779070A070B07080349105A105B1052B
:1009F00039F4E7FE0DC080E490E0A0E0B0E004C070
:100A00008FE390E0A0E0B0E0E80EF91E0A1F1B1F84
:100A100017FF05C016950795F794E794319687E080
:100A200016950795F794E7948A95D1F705C0EE24BB
:100A3000FF248701EFEFF0E06E2F6795662767953B
:100A4000902F9F77D794DD24D7948E2F8695492FAA
:100A5000462B582F5D29B701CA011F910F91FF90B6
:100A6000EF90DF900895FC01DB01408151812281EC
:100A7000622F6F7770E0221F2227221F9381892F18
:100A8000880F822B282F30E0991F9927991F1196E4
:100A90009C93119721153105A9F541155105610563
:100AA000710511F482E037C082E89FEF13969C93A2
:100AB0008E9312979A01AB0167E0220F331F441FF8
:100AC000551F6A95D1F783E08C930DC0220F331F19
:100AD000441F551F12968D919C9113970197139661
:100AE0009C938E931297203080E0380780E048076F
:100AF00080E4580758F314962D933D934D935C93DF
:100B0000179708952F3F310579F441155105610577
:100B1000710519F484E08C93089564FF03C081E0AB
:100B20008C9312C01C9210C02F57304013963C93E8
:100B30002E93129783E08C9387E0440F551F661F16
:100B4000771F8A95D1F7706414964D935D936D93DA
:100B50007C931797089597FB092E07260AD077FDF7
:100B600004D00CD006D000201AF4709561957F4F08
:100B70000895F6F7909581959F4F0895AA1BBB1B8A
:100B800051E107C0AA1FBB1FA617B70710F0A61B8D
:100B9000B70B881F991F5A95A9F780959095BC01AE
:100BA000CD0108952F923F924F925F926F927F9264
:100BB0008F929F92AF92BF92CF92DF92EF92FF926D
:100BC0000F931F93CF93DF93CDB7DEB7CA1BDB0B19
:100BD0000FB6F894DEBF0FBECDBF09942A883988BE
:100BE00048885F846E847D848C849B84AA84B984C5
:100BF000C884DF80EE80FD800C811B81AA81B981D1
:100C0000CE0FD11D0FB6F894DEBF0FBECDBFED01E4
:060C10000895F894FFCFE7
:100C16007B48676E5C3E3F687F7C000000000000FA
:100C26000000000102020303030304040404040495
:100C36000404050505050505050505050505050560
:100C46000505060606060606060606060606060640
:100C5600060606060606060606060606060606062E
:100C66000606070707070707070707070707070710
:100C760007070707070707070707070707070707FE
:100C860007070707070707070707070707070707EE
:100C960007070707070707070707070707070707DE
:100CA60007070808080808080808080808080808C0
:100CB60008080808080808080808080808080808AE
:100CC600080808080808080808080808080808089E
:100CD600080808080808080808080808080808088E
:100CE600080808080808080808080808080808087E
:100CF600080808080808080808080808080808086E
:100D0600080808080808080808080808080808085D
:100D1600080808080808080808080808080808084D
:020D26000808BB
:00000001FF
